:020000040800F2
:100000008809002089010008E9260008C5240008A5
:10001000E5260008E1030008092E000800000000A2
:100020000000000000000000000000001927000888
:100030002104000800000000ED260008A92800089F
:10004000A3010008A3010008A3010008A301000800
:10005000A3010008A3010008A3010008A3010008F0
:10006000A3010008A3010008A3010008E50300089C
:10007000A3010008A3010008A3010008A3010008D0
:10008000A3010008A3010008A3010008A3010008C0
:10009000A3010008A3010008A3010008A3010008B0
:1000A000A3010008A3010008A3010008A3010008A0
:1000B000A30100088D290008A3010008A30100087E
:1000C000A3010008A3010008A3010008A301000880
:1000D000A3010008F92D0008A3010008A3010008EE
:1000E000A3010008A3010008A301000800F002F822
:1000F00000F03AF80AA090E8000C82448344AAF188
:100100000107DA4501D100F02FF8AFF2090EBAE885
:100110000F0013F0010F18BFFB1A43F0010318473B
:10012000A82D0000C82D0000103A24BF78C878C15F
:10013000FAD8520724BF30C830C144BF04680C60ED
:10014000704700000023002400250026103A28BF35
:1001500078C1FBD8520728BF30C148BF0B60704739
:100160001FB51FBD10B510BD00F058F81146FFF7C0
:10017000F7FF02F067FE00F076F803B4FFF7F2FF36
:1001800003BC00F07BF8000009488047094800479D
:10019000FEE7FEE7FEE7FEE7FEE7FEE7FEE7FEE737
:1001A000FEE7FEE704480549054A064B7047000094
:1001B00035290008ED000008880300208809002088
:1001C00088050020880500204FF0000200B5134686
:1001D00094469646203922BFA0E80C50A0E80C5067
:1001E000B1F12001BFF4F7AF090728BFA0E80C5018
:1001F00048BF0CC05DF804EB890028BF40F8042B11
:1002000008BF704748BF20F8022B11F0804F18BF7D
:1002100000F8012B7047704770477047754600F033
:1002200029F8AE4605006946534620F0070085468A
:1002300018B020B5FFF7B6FFBDE820404FF000062C
:100240004FF000074FF000084FF0000B21F00701BE
:10025000AC46ACE8C009ACE8C009ACE8C009ACE801
:10026000C0098D4670470446AFF300802046FFF773
:1002700084FF00000048704728030020014918202F
:10028000ABBEFEE726000200704770B504460025AD
:100290002068806800F00100F0B12068806820F0DC
:1002A00001002168886000F0B9FF05460EE000F00B
:1002B000B5FF401B022809D9A06A40F01000A062D7
:1002C000E06A40F00100E062012070BD20688068B3
:1002D00000F001000028EAD10020F6E770B50546DD
:1002E0006C6AA06A00F05000E0B9A06A40F40070A7
:1002F000A0622068806800F46020B0F5602F0DD106
:10030000207B58B9A06A20F48070A062A06A00F433
:10031000805018B9A06A40F00100A062204600F0A9
:1003200023FA03E0206A016B2846884770BD70B548
:1003300005466C6AA06A40F04000A062E06A40F0A6
:100340000400E062204600F054FA70BD70B5044627
:10035000656A284600F04CFA70BD000038B50446C6
:100360000025002000902068806800F0010080BB1C
:100370002068806840F001002168886016480068A5
:100380001649B0FBF1F0009002E00098401E00908A
:1003900000980028F9D100F041FF054613E000F075
:1003A0003DFF401B02280ED9A06A40F01000A06259
:1003B000E06A40F00100E06200BF002084F8240001
:1003C00000BF012038BD2068806800F001000028CF
:1003D000E5D00020F6E700001C00002040420F009E
:1003E00000BFFEE710B5024800F016FC10BD00008B
:1003F0005000002030B590F840500124AC40C56B4F
:100400006C60046863604468102C04D10468A260C6
:100410000468E16003E00468A1600468E26030BD44
:10042000704772B600BFFEE71CB500220092019231
:10043000024600EBD273C3F34F0000210EE0164BCF
:1004400033F82130009A1A440092134B03EB8103D6
:100450005B88019A1A4401924A1CD1B28142EEDBB8
:10046000009AB2FBF0F20D4B0D4C247823F82420B7
:10047000019AB2FBF0F20A4C247803EB84035A8011
:10048000074A1278521C064B1A701A461278052A2F
:1004900001DB00221A701CBD14010020A402002000
:1004A0000E0000200CB5002200920192024600EBE3
:1004B000D273C3F34F0000210EE0104B33F821300C
:1004C000009A1A4400920D4B03EB81035B88019A5A
:1004D0001A4401924A1CD1B28142EEDB009AB2FB6F
:1004E000F0F2074B1B681A44054B1A60019AB2FBE5
:1004F000F0F25B681A44024B5A600CBD14010020F4
:1005000000000020F8B5044600260020009000BF3F
:1005100094F82400012801D10220F8BD012084F8BC
:10052000240000BF2046FFF7B0FE0646002E62D131
:10053000A06A20F4885040F00200A062022000F07F
:1005400045FF30490968B1FBF0F04000009002E03F
:100550000098401E009000980028F9D12046FFF72F
:10056000FDFE2068806840F008002168886000F087
:1005700055FE054611E000F051FE401B0A280CD93B
:10058000A06A20F0020040F01000A06200BF00202E
:1005900084F8240000BF0120BFE72068806800F0D5
:1005A00008000028E7D12068806840F00400216836
:1005B000886000F033FE054611E000F02FFE401B7E
:1005C0000A280CD9A06A20F0020040F01000A062B6
:1005D00000BF002084F8240000BF01209DE72068B0
:1005E000806800F004000028E7D1A06A20F0020033
:1005F00040F00100A06200BF002084F8240000BF8A
:1006000030468AE71C00002038B50246002300204F
:10061000009000BF92F82400012801D1022038BDCB
:10062000012082F8240000BF4868072812D2106811
:10063000406B0C79641E04EB84051F24AC40A0437E
:100640000D796D1E05EB85050C68AC4020431468E0
:10065000606327E048680D2812D21068006B0C799F
:10066000E41F04EB84051F24AC40A0430D79ED1F6B
:1006700005EB85050C68AC4020431468206311E04D
:100680001068C06A0C790D3C04EB84051F24AC4053
:10069000A0430D790D3D05EB85050C68AC4020436A
:1006A0001468E06208680A2812D31068C0680C78E1
:1006B0000A3C04EB44050724AC40A0430D780A3DF6
:1006C00005EB45058C68AC4020431468E0600FE002
:1006D000106800690C7804EB44050724AC40A04383
:1006E0000D7805EB45058C68AC402043146820610B
:1006F0000868102802D00868112827D1174C106804
:10070000A0421ED11068806800F40000F0B91068A3
:10071000806840F400001468A0600868102815D1B3
:100720000F4800680F4CB0FBF4F000EB8000400075
:10073000009002E00098401E009000980028F9D137
:1007400004E0906A40F020009062012300BF002086
:1007500082F8240000BF184661E700000024014031
:100760001C00002040420F0010B504461D480088C0
:1007700040F6B831884205DA1A480088401C194909
:10078000088010BD17480088B0F57A6F08DA154860
:100790000088401C13490880C820FFF783FEF0E75B
:1007A00010480088B0F57A6F17D10E480088401CB9
:1007B0000C4908800C4800684FF47A71B0FBF1F0E6
:1007C00009490860084640684FF47A71B0FBF1F0BF
:1007D00005494860054801F007FBC820FFF724FEE3
:1007E00000BFCEE708000020000000209400002099
:1007F000704770472DE9F041044600270025002688
:10080000A84614B90120BDE8F081A06810B1207D90
:1008100000B100BFA06A30B90020E06284F8240073
:10082000204600F089F82046FFF72FFD0746A06A12
:1008300000F01000002873D1002F71D1A06A20F4BD
:10084000885040F00200A062E16960680843217BA3
:1008500040EA41000643A068B0F5807F02D0A0685E
:10086000012802D14FF4807000E000200543207D74
:10087000012811D1207B38B9A069401E4FF40061D6
:1008800041EA4030054307E0A06A40F02000A06242
:10089000E06A40F00100E0622068406820F46940AE
:1008A0002843216848602068806821490840304317
:1008B00021688860A068B0F5807F02D0A068012818
:1008C00002D14FF4807000E00020B0F5807F03D1AA
:1008D000208A401E4FEA00582068C06A20F4700049
:1008E00040EA08002168C862206880681149084011
:1008F000B04208D10020E062A06A20F0020040F07F
:100900000100A06211E0A06A20F0020040F0100097
:10091000A062E06A40F00100E062012705E0FFE725
:10092000A06A40F01000A062012738466BE7000083
:10093000FDF7E1FFFE0E1FFF10B586B00446002054
:1009400002900390049005902249206888423ED18D
:1009500000BF2148806940F400701F498861084643
:10096000806900F40070019000BF00BF00BF08461E
:10097000806940F0040088610846806900F0040046
:10098000019000BF00BF062002900320039002A93F
:10099000124800F0A5FA1248124908600020486089
:1009A0000021104881608021C160490001618900F7
:1009B0004161202181610902C16100F0FBF908B1A8
:1009C000FFF72FFD00BF07482062446200BF06B05A
:1009D00010BD00000024014000100240000801404A
:1009E00008000240500000202DE9F04104460D4669
:1009F0001646002757492068884203D05649206888
:100A0000884205D15348001D006800F4702000E0C2
:100A1000002000287ED100BF94F82400012802D1D4
:100A20000220BDE8F081012084F8240000BF2046A8
:100A3000FFF794FC0746002F6DD1A06A40F60161D4
:100A4000884340F48070A06243492068884209D1FD
:100A50004048001D006800F4702008B9012002E041
:100A6000002000E0012078B1A06A20F48010A0628C
:100A70002068406800F4806000B3A06A20F4005051
:100A800040F48050A06219E0A06A40F48010A06297
:100A900030492068884203D02F492068884205D118
:100AA0002C48001D006800F4806000E0002028B1A0
:100AB000A06A20F4005040F48050A062A06A00F4C4
:100AC000805020B1E06A20F00600E06201E00020E2
:100AD000E06200BF002084F8240000BF1F48216AA4
:100AE00088621F48216AC8621E48216A08636FF045
:100AF0000200216808602068806840F480702168E6
:100B00008860226802F14C0133462A46206A00F0D0
:100B100085F901E01AE014E02068806800F46020A4
:100B2000B0F5602F06D12068806840F4A0002168ED
:100B300088600CE02068806840F48010216888603C
:100B400005E000BF002084F8240000E001273846BB
:100B500067E700000024014000280140DD02000892
:100B60004D0300082F03000870B50446002594F8D3
:100B70002100022803D00420A063012548E020685A
:100B8000006820F00E00216808602068006820F0EE
:100B90000100216808601F492068884201D10120B6
:100BA00026E01C4914312068884201D110201FE042
:100BB000184928312068884201D1801518E015496C
:100BC0003C312068884201D1801411E01149503134
:100BD0002068884202D14FF4803009E00D49643129
:100BE0002068884202D14FF4801001E04FF08070FD
:100BF000084908394860012084F8210000BF00201E
:100C000084F8200000BF606B10B12046616B8847FC
:100C1000284670BD0800024070B50446E06B0568C8
:100C20002068066894F84010042088402840002876
:100C300046D006F00400002842D02068006800F08A
:100C4000200028B92068006820F0040021680860AE
:100C500057492068884201D1042027E054491431C3
:100C60002068884201D1402020E051492831206885
:100C7000884201D1001519E04D493C312068884275
:100C800002D14FF4804011E0494950312068884238
:100C900002D14FF4802009E0454964312068884240
:100CA00002D14FF4800001E04FF0806040490839E4
:100CB0004860E06A00287AD02046E16A884776E0FA
:100CC00094F84010022088402840A0B306F00200AB
:100CD00088B32068006800F0200040B920680068F0
:100CE00020F00A0021680860012084F821003049C2
:100CF0002068884201D1022028E02D491431206863
:100D0000884201D1202021E02949283120688842E9
:100D100001D140151AE026493C312068884202D1B1
:100D20004FF4005012E0224950312068884203D12C
:100D30004FF400300AE017E01D4964312068884212
:100D400002D14FF4001001E04FF00070184908394B
:100D5000486000BF002084F8200000BFA06A30B3C4
:100D60002046A16A884722E094F840100820884075
:100D70002840E0B106F00800C8B12068006820F003
:100D80000E002168086094F8401001208840E16B53
:100D900048600120A06384F8210000BF002084F88F
:100DA000200000BF206B10B12046216B884770BD2A
:100DB000080002400146002209B901207047164B85
:100DC0000868C01A1423B0FBF3F0800008641248CE
:100DD0000838C863022081F821000868026843F6D9
:100DE000F0708243D1E901031843CB6818430B69C3
:100DF00018434B6918438B691843CB691843024366
:100E00000868026000208863012081F8210000202A
:100E100081F8200000BFD1E7080002402DE9F04131
:100E200004460D4616461F464FF0000800BF94F8D2
:100E30002000012802D10220BDE8F081012084F8C1
:100E4000200000BF94F8210001282CD1022084F852
:100E500021000020A0632068006820F001002168C4
:100E600008603B46324629462046FFF7C3FAE06A4F
:100E700030B12068006840F00E00216808600BE087
:100E80002068006820F0040021680860206800687D
:100E900040F00A00216808602068006840F0010006
:100EA0002168086006E000BF002084F8200000BF31
:100EB0004FF002084046BFE770B5044600F0AEF9B7
:100EC00006462546681C10B104480078054400BF5A
:100ED00000F0A4F9801BA842FAD370BD18000020CE
:100EE0002DE9F8470346002294466EE14FF00108D1
:100EF00008FA02F4D1F8008008EA0400A0427DD18B
:100F0000DFF8DCA2D1F80480A8EB0A09D0453AD07A
:100F100014DCB8F1030F50D009DCB8F1000F31D068
:100F2000B8F1010F1CD0B8F1020F49D120E0B8F19F
:100F3000110F18D0B8F1120F42D11EE0B9F5881F79
:100F400025D006DCB9F5803F20D0B9F5801F37D118
:100F50001AE0B9F5001F18D0B9F5041F30D117E019
:100F6000D1F80CC02DE0D1F80C8008F1040C28E079
:100F7000D1F80C8008F1080C23E0D1F80C8008F1BE
:100F80000C0C1EE000BF00BF00BF00BF00BF00BFD1
:100F9000D1F80880B8F1000F02D14FF0040C0BE03B
:100FA000D1F80880B8F1010F03D14FF0080C1C6193
:100FB00002E04FF0080C5C6103E04FF0000C00E031
:100FC00000BF00BFFF2801D8984601E003F10408E4
:100FD0004646FF2802D84FEA820803E0A2F108083B
:100FE0004FEA88084746D6F800804FF00F0909FA03
:100FF00007F928EA09080CFA07F900E088E048EA4E
:101000000908C6F80080D1F8048008F08058B8F1CB
:10101000805F7DD100BFDFF8CC81D8F8188048F020
:101020000108DFF8C091C9F81880C846D8F81880C0
:1010300008F00108CDF8008000BF00BF4FEAB938C2
:101040004FEA920958F829504FEA82784FEA187906
:101050004FF00F0808FA09F825EA0805DFF888813B
:10106000434502D14FF0000816E0DFF88081434588
:1010700002D14FF001080FE0DFF87481434502D13F
:101080004FF0020808E0DFF86C81434502D14FF0D1
:10109000030801E04FF004084FEA82794FEA19791A
:1010A00008FA09F848EA0505DFF84C814FEA920989
:1010B00048F82950D1F8048008F48038B8F5803F0A
:1010C0000AD1DFF83881D8F8008048EA0008DFF854
:1010D0002C91C9F8008009E0DFF82081D8F8008061
:1010E00028EA0008DFF81491C9F80080D1F80480DC
:1010F00008F40038B8F5003F10D1DFF8008108F19E
:101100000408D8F8008048EA0008DFF8F09000E012
:101110005AE009F10409C9F800800DE0DFF8DC802D
:1011200008F10408D8F8008028EA0008DFF8CC901D
:1011300009F10409C9F80080D1F8048008F4801886
:10114000B8F5801F0ED1DFF8B48008F10808D8F890
:10115000008048EA0008DFF8A49009F10809C9F8FE
:1011600000800DE0DFF8948008F10808D8F80080CE
:1011700028EA0008DFF8849009F10809C9F800801E
:10118000D1F8048008F40018B8F5001F0ED1DFF87C
:101190006C8008F10C08D8F8008048EA0008DFF8F5
:1011A0005C9009F10C09C9F800800DE0DFF84C8073
:1011B00008F10C08D8F8008028EA0008DFF83C9015
:1011C00009F10C09C9F80080521CD1F8008028FAF6
:1011D00002F8B8F1000F7FF489AEBDE8F88700008F
:1011E000000011100010024000080140000C0140F6
:1011F00000100140001401400800014000040140BB
:10120000C2680A400AB1416100E0016170470AB159
:10121000016101E00B0403617047000001480068B0
:101220007047000010000020034800680349097857
:101230000844014908607047100000201800002091
:1012400010B50848006840F0100006490860032007
:1012500000F0A8F80F2000F007F800F02BF80020AD
:1012600010BD00000020024070B504460E48007812
:101270004FF47A71B1FBF0F00C490968B1FBF0F55D
:10128000284600F02FFD08B1012070BD102C07D2B8
:1012900000222146501E00F047F80548046001E096
:1012A0000120F2E70020F0E7180000201C000020D9
:1012B0001400002008B500BF1148806940F001000B
:1012C0000F4988610846806900F00100009000BF66
:1012D00000BF00BF0846C06940F08050C8610846A2
:1012E000C06900F08050009000BF00BF00BF0549FA
:1012F000486820F0E06040F00070486000BF08BD22
:10130000001002400000014001460846002809DBA9
:1013100000F01F0301229A4043099B0003F1E023E0
:10132000C3F8002100BF70472DE9F05F80460D46ED
:101330001646002701F06AFD074639462A4633461D
:1013400001F00700C0F1070ABAF1040F02D94FF00B
:10135000040A01E0C0F1070AD14600F1040ABAF11B
:10136000070F02D24FF0000A01E0A0F1030AD446B1
:101370004FF0010A0AFA09FAAAF1010A0AEA020A76
:101380000AFA0CFA4FF0010B0BFA0CFBABF1010B54
:101390000BEA030B4AEA0B042146404601F03EFDEE
:1013A000BDE8F09F00BF00F00702064B19684FF63A
:1013B000FF031940044B0B4343EA0221014B196020
:1013C00000BF70470CED00E00000FA052DE9F04386
:1013D00085B006463BA30FCB01AC0FC43DA000680F
:1013E00000904FF00008002500270024A146012EA0
:1013F00030D0022E55D0102E5ED137484468006898
:1014000000F0807000B301A8C4F38341475C04F48A
:10141000803070B130484068C0F340401DF8008013
:1014200004F4803040B12D48B0FBF8F000FB07F524
:1014300002E02B4807FB00F52748406800F48000D5
:10144000B0F5800F01D1A94603E068000321B0FB8D
:10145000F1F932E02048046A04F44070B0F5807F6E
:1014600005D104F0020010B14FF4004918E004F473
:101470004070B0F5007F07D11748406A00F00200C5
:1014800010B149F640490BE004F44070B0F5407FDC
:1014900006D11148006800F4003008B14FF2244929
:1014A0000BE000F093F90C494968C1F38131491C04
:1014B0004900B0FBF1F900E000BF00BF484605B0AD
:1014C000BDE8F08302030405060708090A0B0C0DAA
:1014D0000E0F1010010200000010024000127A00EE
:1014E00000093D00F8B5044600260025207800F0EC
:1014F000010000286BD000274348C06900F08050ED
:1015000070B900BF4048C06940F080503E49C86192
:101510000846C06900F08050009000BF00BF01275E
:101520003A48006800F48070B0B93848006840F468
:10153000807036490860FFF771FE064606E0FFF747
:101540006DFE801B642801D90320F8BD2F48006878
:1015500000F480700028F2D02B48006A00F4407537
:101560002DB3A08800F44070A84220D02648006A1D
:1015700020F44075012026490860002008602248B8
:10158000056205F0010090B1FFF748FE064608E04D
:10159000FFF744FE801B41F28831884201D90320C5
:1015A000D3E71948006A00F002000028F0D016487E
:1015B000006A20F440706168084313490862012FF3
:1015C00004D10846C06920F08050C86100BF20786F
:1015D00000F00200022807D10B48406820F4404088
:1015E000A168084308494860207800F010001028DE
:1015F00007D10548406820F48000E16808430249AB
:1016000048600020A1E70000001002400070004088
:101610004004424270B504460D460CB9012070BD2D
:101620005A48006800F00700A8420ED257480068E8
:1016300020F007002843554908600846006800F07C
:101640000700A84201D00120E9E7207800F002005D
:1016500002281DD1207800F00400042805D14C4850
:10166000406840F4E0604A494860207800F0080093
:10167000082805D14648406840F460504449486015
:101680004348406820F0F000A168084340494860A2
:10169000207800F0010078B36068012806D13C484A
:1016A000006800F4003090B90120B8E760680228B3
:1016B00006D13748006800F0007040B90120AEE75D
:1016C0003348006800F0020008B90120A7E730485D
:1016D000406820F00300616808432D494860FFF727
:1016E0009DFD064609E0FFF799FD801B41F2883118
:1016F000884202D9032092E707E02548406800F0BD
:101700000C006168B0EB810FEDD12048006800F05B
:101710000700A8420ED91D48006820F007002843A2
:101720001A4908600846006800F00700A84201D086
:10173000012074E7207800F00400042807D1144841
:10174000406820F4E060E16808431149486020786F
:1017500000F00800082808D10D48406820F46050C7
:10176000216940EAC1000A49486000F03FF8084991
:101770004968C1F30311074A515CC8400649086033
:1017800006480068FFF770FD002048E7002002408F
:1017900000100240B02E00081C00002014000020A1
:1017A00001480068704700001C00002000B5FFF7EA
:1017B000F7FF04494968C1F30221034A515CC8405C
:1017C00000BD000000100240C02E000800B5FFF769
:1017D000E7FF04494968C1F3C221034A515CC8408C
:1017E00000BD000000100240C02E0008F0B585B01A
:1017F0000FF26C0C9CE8E01001A8A0E8E0101CA51A
:101800002D68009500210022002300240020194D9E
:10181000696801F00C05F5B1042D02D0082D19D12D
:1018200001E0154819E001ADC1F38346AC5D01F458
:10183000803555B10F4D6D68C5F340451DF8052045
:101840000D4D6543B5FBF2F302E00C4D04FB05F3CF
:10185000184602E000BF084800BF00BF05B0F0BD59
:1018600002030405060708090A0B0C0D0E0F1010E1
:10187000010200000010024000127A0000093D0041
:10188000F8B504460CB90120F8BD207800F001003D
:10189000002878D0F848406800F00C0004280CD0EC
:1018A000F548406800F00C00082811D1F248406863
:1018B00000F48030B0F5803F0AD1EF48006800F4B2
:1018C000003000285FD0606800285CD10120DBE791
:1018D00000BF6068B0F5803F06D1E748006840F47B
:1018E0008030E549086028E0606858B9E24800683F
:1018F00020F48030E04908600846006820F4802029
:1019000008601AE06068B0F5A02F0BD1DA480068D3
:1019100040F48020D84908600846006840F48030D0
:1019200008600AE0D448006820F48030D24908609A
:101930000846006820F48020086000BF606888B115
:10194000FFF76CFC054606E0FFF768FC401B6428C7
:1019500001D9032098E7C848006800F40030002847
:10196000F2D010E0FFF75AFC054606E0FFF756FC00
:10197000401B642801D9032086E7BF48006800F4B3
:1019800000300028F2D1207800F00200022857D160
:10199000B948406800F00C0050B1B748406800F00A
:1019A0000C00082818D1B448406800F4803098B979
:1019B000B148006800F0020020B12069012801D080
:1019C000012061E7AC48006820F0F800616940EA56
:1019D000C100A949086033E02069E8B10120A749A6
:1019E0000860FFF71BFC054606E0FFF717FC401BED
:1019F000022801D9032047E79F48006800F0020051
:101A00000028F2D09C48006820F0F800616940EAA4
:101A1000C1009949086013E0002098490860FFF769
:101A2000FDFB054606E0FFF7F9FB401B022801D944
:101A3000032029E79048006800F002000028F2D156
:101A4000207800F0080008282DD1A069B8B1012045
:101A50008B490860FFF7E2FB054606E0FFF7DEFB77
:101A6000401B022801D903200EE78348406A00F09A
:101A700002000028F2D0012000F03AFE13E000201E
:101A80007F490860FFF7CAFB054606E0FFF7C6FB83
:101A9000401B022801D90320F6E67748406A00F08F
:101AA00002000028F2D1207800F00400042873D14D
:101AB00000277148C06900F0805070B900BF6E48BF
:101AC000C06940F080506C49C8610846C06900F0A8
:101AD0008050009000BF00BF01276A48006800F4F2
:101AE0008070B0B96748006840F48070654908604C
:101AF000FFF794FB054606E0FFF790FB401B6428C8
:101B000001D90320C0E65F48006800F48070002817
:101B1000F2D000BFE068012806D15748006A40F0C3
:101B200001005549086227E0E06858B95248006A48
:101B300020F00100504908620846006A20F00400C5
:101B4000086219E0E06805280BD14B48006A40F0B4
:101B50000400494908620846006A40F00100086232
:101B60000AE04548006A20F001004349086208463F
:101B7000006A20F00400086200BFE068A0B1FFF72F
:101B80004DFB054609E0FFF749FB401B41F2883158
:101B9000884202D9032077E622E03748006A00F045
:101BA00002000028EFD012E0FFF738FB054608E0FE
:101BB000FFF734FB401B41F28831884201D90320F2
:101BC00062E62D48006A00F002000028F0D1012FE3
:101BD00005D12948C06920F080502749C86100BF5D
:101BE000E069C8B32448406800F00C00082860D0C1
:101BF000E069022848D1002020490866FFF70EFB63
:101C0000054606E0FFF70AFB401B022801D9032026
:101C10003AE61948006800F000700028F2D1206A06
:101C2000B0F5803F07D11448406820F40030A16827
:101C3000084311494860D4E9080108430E4949683E
:101C400021F4741108430C49486001200B490866CF
:101C5000FFF7E4FA054607E03DE0FFF7DFFA401B37
:101C6000022801D903200FE60348006800F0007045
:101C70000028F2D02FE00000001002400000424295
:101C80008004424200700040002014490866FFF7BB
:101C9000C5FA054606E0FFF7C1FA401B022801D944
:101CA0000320F1E50E48006800F000700028F2D132
:101CB00011E0E069012800D1E6E50948466806F42C
:101CC0008031206A814204D106F47011606A814239
:101CD00001D00120D8E50020D6E5000000004242F6
:101CE0000010024070B504462546681EB0F1807FA2
:101CF00001D301200FE0681E4FF0E02148610F2161
:101D00004FF0FF3001F08AF800204FF0E0218861A9
:101D100007200861002070BD7047704710B502466B
:101D200000BF92F83C00012801D1022010BD012023
:101D300082F83C0000BF022082F83D001068436832
:101D40001068846823F070030868034324F080045B
:101D5000486804431068436010688460012082F87A
:101D60003D0000BF002082F83C0000BF00BFDDE75F
:101D700010B504460CB9012010BD94F83D0028B9F7
:101D8000002084F83C00204600F00CF8022084F883
:101D90003D00211D206800F003FE012084F83D0075
:101DA0000020E9E738B504460D492068884215D17E
:101DB00000BF0C48C06940F002000A49C8610846EB
:101DC000C06900F00200009000BF00BF0122114670
:101DD0001D20FFF7A9FA1D20FFF796FA38BD000075
:101DE000000400400010024001460868C06840F04E
:101DF00001000B68D8600868806800F00702062AB6
:101E000005D00868006840F001000B6818600020E9
:101E100070472DE9F04104460D4600BF94F83C00A0
:101E2000012802D10220BDE8F081012084F83C00A5
:101E300000BF022084F83D002068866826F07706FF
:101E400026F47F46206886602868502833D00CDC52
:101E5000202850D004DC00284BD0102851D149E074
:101E6000302849D040284CD139E060282DD0702846
:101E700007D0B0F5805F03D0B0F5005F41D10DE031
:101E800040E0D5E902136A68206800F0C3FD2068CD
:101E9000866846F077062068866033E0D5E902134D
:101EA0006A68206800F0B6FD2068806840F48040D1
:101EB0002168886026E0EA686968206800F0BEFD55
:101EC0005021206800F0B1FD1CE0EA6869682068D4
:101ED00000F0C7FD6021206800F0A7FD12E0EA686D
:101EE0006968206800F0AAFD4021206800F09DFD8F
:101EF00008E000BF00BF00BF2968206800F095FD22
:101F000000E000BF00BF012084F83D0000BF0020BA
:101F100084F83C0000BF00BF85E7704710B5044659
:101F200020680069C0F34000D8B12068C068C0F3E1
:101F30004000B0B16FF002002168086101202077F5
:101F40002068806900F0030018B12046FFF7E5FF24
:101F500005E0204600F0ADF8204600F0ABF8002088
:101F6000207720680069C0F38000D8B12068C0687D
:101F7000C0F38000B0B16FF0040021680861022056
:101F800020772068806900F4407018B12046FFF780
:101F9000C4FF05E0204600F08CF8204600F08AF8E7
:101FA0000020207720680069C0F3C000D8B1206805
:101FB000C068C0F3C000B0B16FF0080021680861CC
:101FC000042020772068C06900F0030018B1204683
:101FD000FFF7A3FF05E0204600F06BF8204600F075
:101FE00069F80020207720680069C0F30010D8B19C
:101FF0002068C068C0F30010B0B16FF01000216815
:102000000861082020772068C06900F4407018B18A
:102010002046FFF782FF05E0204600F04AF8204600
:1020200000F048F8002020772068006900F00100E7
:1020300058B12068C06800F0010030B16FF00100B5
:1020400021680861204600F036F820680069C0F376
:10205000C01058B12068C068C0F3C01030B16FF034
:102060008000216808612046FFF756FE206800695D
:10207000C0F3801058B12068C068C0F3801030B140
:102080006FF0400021680861204600F015F82068D4
:102090000069C0F3401058B12068C068C0F3401018
:1020A00030B16FF02000216808612046FFF735FE4F
:1020B00010BD704770477047704770472DE9F04773
:1020C0000446206805682068C668206847694FF0A4
:1020D0000008C14605F00F08B8F1000F0AD105F05D
:1020E000200038B106F0200020B1204600F0F7FCB7
:1020F000BDE8F087B8F1000F6DD007F0010018B906
:1021000006F49070002866D005F0010030B106F4A6
:10211000807018B1E06B40F00100E06305F004004E
:1021200030B107F0010018B1E06B40F00200E0634D
:1021300005F0020030B107F0010018B1E06B40F08B
:102140000400E06305F0080030B107F0010018B1A9
:10215000E06B40F00800E063E06B68B305F020003E
:1021600028B106F0200010B1204600F0B8FC20682D
:102170004069C0F38019E06B00F0080010B9B9F1B4
:10218000000F22D0204600F08AFC2068406900F051
:102190004000B0B12068406920F0400021684861EB
:1021A000606B50B11748616B4863606BFEF7DCFCF5
:1021B00010B1606B416B88470CE02046FFF77DFF54
:1021C00008E02046FFF779FF04E02046FFF775FF9F
:1021D0000020E0638CE705F0800030B106F080005D
:1021E00018B1204600F09EFD82E705F0400030B1B6
:1021F00006F0400018B1204600F061FC78E700BF0F
:1022000076E700008B2A000810B504460CB90120BF
:1022100010BDA06900B100E000BF94F8390028B9F2
:10222000002084F83800204600F028F8242084F8A4
:1022300039002068C06820F400502168C86020463A
:1022400000F0A0FC2068006920F49040216808613B
:102250002068406920F02A00216848612068C06831
:1022600040F400502168C8600020E063202084F81A
:10227000390084F83A000020CAE7000010B586B0A3
:102280000446002002900390049005901E492068A7
:10229000884236D100BF1D48806940F480401B4908
:1022A00088610846806900F48040019000BF00BF4B
:1022B00000BF0846806940F00400886108468069D4
:1022C00000F00400019000BF00BF481502900220FA
:1022D00003900320059002A90D48FEF701FE4FF47C
:1022E0008060029000200390049002A90848FEF745
:1022F000F7FD002211462520FFF716F82520FFF7ED
:1023000003F806B010BD0000003801400010024084
:102310000008014010B5034693F83A0020282FD159
:1023200001B10AB9012010BD00BF93F8380001289F
:1023300001D10220F7E7012083F8380000BF99623D
:102340009A85DA850020D863222083F83A0000BFFE
:10235000002083F8380000BF1868C06840F480701F
:102360001C68E0601868406940F001001C6860610A
:102370001868C06840F020001C68E0600020D2E7C8
:102380000220D0E770B5054614480078AE2819D170
:1023900012484078EA2815D11048007AEF2811D168
:1023A0000E48407AFE280DD10C488078042803D1CD
:1023B00001200B49087005E008488078022801D107
:1023C00000F04CFA0A2205490648FFF7A3FF04462D
:1023D000022C02D101200449087070BDC202002005
:1023E0000A000020D40000200B0000202DE9F84353
:1023F00004460D4616461F464FF0000994F8390072
:1024000020285CD105B116B90120BDE8F88300BFD2
:1024100094F83800012801D10220F6E7012084F861
:10242000380000BF0020E063212084F83900FEF767
:10243000F5FE8146A684E6842BE0E08C401EE08415
:10244000A068B0F5805F16D14B460022802120465F
:10245000009700F09BFC08B10320D6E7A846B8F827
:102460000000C0F3080021684860206908B9AD1C6D
:102470000FE06D1C0DE04B460022802120460097A6
:1024800000F084FC08B10320BFE715F8010B2168B8
:102490004860E08C0028D0D14B46002240212046E5
:1024A000009700F073FC08B10320AEE7202084F809
:1024B000390000BF002084F8380000BFA5E70220E3
:1024C000A3E7704700BFFEE70EB500200090019023
:1024D000029017481749086081151648816001214C
:1024E0000173002101754FF46021C1610020114981
:1024F000486002210F480161FEF77CF908B1FDF741
:1025000090FF012000900190029069460948FEF773
:102510007BF808B1FDF785FF022000900190694625
:102520000448FEF771F808B1FDF77BFF0EBD00000F
:10253000002401402000002008B500BF0A4840697F
:1025400040F00100084948610846406900F0010078
:10255000009000BF00BF022201210B20FEF7E4FE25
:102560000B20FEF7D1FE08BD0010024000B585B07B
:102570000020019002900390049000BF2D488069D4
:1025800040F010002B4988610846806900F0100077
:10259000009000BF00BF00BF0846806940F02000E7
:1025A00088610846806900F02000009000BF00BFED
:1025B00000BF0846806940F00400886108468069D1
:1025C00000F00400009000BF00BF00BF0846806913
:1025D00040F0080088610846806900F0080000901B
:1025E00000BF00BF00224FF400511348FEF70FFE5A
:1025F00000224FF480511148FEF709FE4FF40050BD
:10260000019001200290002003900220049001A973
:102610000948FEF765FC4FF48050019001200290BC
:10262000002003900220049001A90448FEF758FC02
:1026300005B000BD0010024000100140000C014038
:1026400000B587B00020039004900590069001909B
:10265000029014481449086041F61F404860002168
:10266000114881606321C160002101618161FFF730
:102670007FFB08B1FDF7D5FE4FF48050039003A90E
:102680000948FFF7C6FB08B1FDF7CBFE002001901B
:10269000029001A90448FFF741FB08B1FDF7C1FE14
:1026A00007B000BD000400409400002010B50B48A6
:1026B0000B4908604FF4E130486000210848816010
:1026C000C16001610C21416100218161C161FFF79D
:1026D0009BFD08B1FDF7A5FE10BD000000380140CC
:1026E000D400002000BFFEE700BFFEE770470000F7
:1026F00008B508490968C9084FF47A72B1FBF2F1CC
:102700004143009100BF00BF00994A1E009200297A
:10271000F9D108BD1C000020704700002DE9F041F0
:1027200045480088B0F57A6F01DCBDE8F0810024EF
:10273000AE222146641C41484254EA222146641CD0
:1027400042543F4802782146641C3C4842543D486C
:102750003D49097830F821003C490988401A05B202
:1027600038483949097800EB810040883749898821
:10277000401A06B234480078401C334908700846B5
:102780000078052801DB002008702046611CCCB2CF
:102790002A490D54C5F307222046611CCCB22749B3
:1027A0000A542046611CCCB224490E54C6F30722B9
:1027B0002146601CC4B2214842540027002004E096
:1027C0001E49095C3944CFB2401CA042F8DB2046C8
:1027D000611CCCB219490F54EF222046611CCCB2C7
:1027E00016490A54FE222146601CC4B213484254C2
:1027F0004FF6FF730A2201461548FFF7F7FD15480B
:102800000088401C1349088008460088642190FB1A
:10281000F1F201FB120020B94FF480510E48FEF78F
:10282000EFFC0C4800884EF66021884202DB002055
:102830000849088000BF78E708000020B80200209F
:102840000A000020A40200200F0000200000002049
:10285000D40000200C000020000C0140012080F377
:10286000138800BF00BF00BF00BF00BF00BFBFF3A1
:102870004F8F00BF00BF00BF0948006800F4E06050
:1028800008490843001D0649086000BF00BF00BF9B
:10289000BFF34F8F00BF00BF00BF00BF00BFFDE709
:1028A0000CED00E00000FA0510B5FEF7BDFC10BD10
:1028B00000B593B0282109A8FDF786FC142104A8CF
:1028C000FDF782FC0020009001900290039001200F
:1028D000099000040A9000200B9001200D90022026
:1028E0001090C10311914FF4E011129109A8FEF765
:1028F000C7FF08B1FDF795FD0F2004900220059059
:10290000002006904FF4806007900020089002217C
:1029100004A8FEF77FFE08B1FDF783FD02200090BA
:10292000800302906846FEF7DDFD08B1FDF779FDF2
:1029300013B000BD1148006840F001000F49086065
:10294000084640680E4908400C494860084600683F
:102950000C490840094908600846006820F48020B6
:1029600008600846406820F4FE0048604FF41F00ED
:102970008860C803044908607047000000100240E6
:102980000000FFF8FFFFF6FE08ED00E010B5FFF7CE
:10299000C5FE0248FFF7C2FA10BD000094000020F7
:1029A00010B50268184B984208D0B0F1804F05D09E
:1029B000164B984202D0164B984203D122F0700277
:1029C0004B681A43104B984208D0B0F1804F05D0A5
:1029D0000E4B984202D00E4B984203D122F4407223
:1029E000CB681A4322F080034C6943EA0402026078
:1029F0008B68C3620B688362034B984201D10B69F9
:102A000003630123436110BD002C0140000400401A
:102A10000008004030B50C46816821F47F4142EA4D
:102A2000032525432943816030BD0A46816821F092
:102A3000700142F0070319438160704730B50B46BF
:102A40001446026A056A25F001050562816921F0D4
:102A5000F00141EA041122F00A021A438161026284
:102A600030BD30B50B461446056A25F010050562E9
:102A70008169026A21F4704141EA043122F0A00226
:102A800042EA03128161026230BD70B505466C6A8C
:102A90000020E085E0842046FFF70FFB70BD016851
:102AA000C96821F490710268D1600168496921F018
:102AB000010102685161202180F83A10704710B579
:102AC00004462068C06820F040002168C8602020CB
:102AD00084F839002046FFF7F4FC002010BD70B5E3
:102AE000044694F83A0022284AD1A068B0F5805FE5
:102AF00013D1A56A206940B920684068C0F3080076
:102B00002880A06A801CA06219E020684068C0B2DA
:102B10002880A06A401CA06211E0206938B92068B2
:102B20004068C1B2A26A501CA062117007E0206820
:102B3000406800F07F01A26A501CA0621170E08D15
:102B4000401E80B2E085C8B92068C06820F020002F
:102B50002168C8602068C06820F480702168C8605F
:102B60002068406920F0010021684861202084F835
:102B70003A002046FFF706FC002070BD0020FCE76D
:102B80000220FAE770B504462168096921F4405132
:102B9000E2681143226811612269A16811436269E8
:102BA00041EA02052168C96841F20C629143294358
:102BB0002268D1602168496921F44071A2691143FA
:102BC00022685161564A2168914254D1FEF7FEFDB8
:102BD00000EBC00101EB001162689200B1FBF2F161
:102BE00000EBC00202EB001263689B00B2FBF3F241
:102BF0006423B2FBF3F202EBC20303EB0212A1EB7C
:102C00008201322202EB01116422B1FBF2F101F0E8
:102C1000F00100EBC00202EB001263689B00B2FB04
:102C2000F3F26423B2FBF3F201EB021200EBC001FA
:102C300001EB001163689B00B1FBF3F100EBC003F3
:102C400003EB00136668B600B3FBF6F36426B3FB30
:102C5000F6F303EBC30606EB0313A1EB8301322368
:102C600003EB01116423B1FBF3F101F00F011144F7
:102C70002268916053E0FEF799FD00EBC00101EB83
:102C8000001162689200B1FBF2F100EBC00202EBAE
:102C9000001263689B00B2FBF3F26423B2FBF3F211
:102CA00002EBC20303EB0212A1EB8201322202EB20
:102CB00001116422B1FBF2F101F0F00100EBC0025E
:102CC00002EB001263689B00B2FBF3F26423B2FBD9
:102CD000F3F201EB021200EBC00101EB001163689B
:102CE0009B00B1FBF3F100EBC00303EB001366683C
:102CF000B600B3FBF6F36426B3FBF6F303EBC306AF
:102D000006EB0313A1EB8301322303EB01116423D0
:102D1000B1FBF3F101F00F0111442268916070BD25
:102D200000380140014691F8390021282CD18868EB
:102D3000B0F5805F0FD10A6A1088C0F308000B68F5
:102D40005860086918B9086A801C086209E0086AB6
:102D5000401C086205E00B6A581C086218780B6872
:102D60005860C88C401E80B2C88458B90868C068D2
:102D700020F080000B68D8600868C06840F0400010
:102D80000B68D860002070470220FCE72DE9F04175
:102D900004460D4617469846069E21E0701CF8B181
:102DA0002EB1FEF73BFAA0EB0800B04218D920681C
:102DB000C06820F4D0702168C8602068406920F0A5
:102DC000010021684861202084F8390084F83A0025
:102DD00000BF002084F8380000BF0320BDE8F08168
:102DE000206800682840A84201D1012000E00020AE
:102DF000B842D3D00020F1E710B50248FFF75EF9E2
:102E000010BD0000D400002000BFFEE702480068AB
:102E1000C0F30220704700000CED00E010B5002860
:102E200004DB0A07130E054A135406E00A07140EC2
:102E3000034A00F00F031B1FD45410BD00E400E050
:102E400018ED00E0FEF7FCF9FFF732FDFFF78EFB0F
:102E5000FFF772FBFFF738FBFFF728FCFFF7F0FBEB
:102E60000E48FDF74FFBC8220D490C48FDF7BCFD8D
:102E70000A220C490C48FFF74DFA0EE06420FEF7D9
:102E80001BF80A480078012807D10020074908707C
:102E90000A2204490448FFF73DFAEFE7200000202A
:102EA00014010020C2020020D40000200B000020EA
:102EB00000000000000000000102030406070809EA
:102EC0000000000001020304E82E000800000020BA
:102ED0002000000028010008082F00082000002022
:102EE0006809000044010008000000000000000024
:102EF00000000300000000000000000010000000BF
:082F0000010000000024F400B0
:04000005080000ED02
:00000001FF
